:1004850050617373776F72643A004F4B2100455288
:02049500520013
:10018C001204717BFF7A0479857D017F011203E8EB
:10019C001200038F1CE51C60F7D3940A5041C3E591
:1001AC00199404E51894005028AE1AAF1B7C007DFE
:1001BC000A1202A38E1A8F1BE51C75F00A84E5F057
:1001CC00251BF51BE4351AF51A0519E519700205FE
:1001DC0018750C04AB1BAA1A7D017F02120429E5C9
:1001EC001C640B7046E51BB4FA2BE51AB403267B92
:1001FC00FF7A04798F7D0E7F011203E8E4F51AF57E
:10020C001BF518F519750C04AB1BAA1A7D017F029E
:10021C0012042980167BFF7A0479937D0E7F0112DC
:10022C0003E8E4F51AF51BF518F519E51C640C60E8
:10023C000302019CD3E5199400E5189400500302C5
:10024C00019CAE1AAF1B7C007D0A1202B58E1A8F70
:10025C001BE519151970021518750C04AB1BAA1A9D
:0A026C007D017F0212042902019CAB
:10045C00EF1FAC0670011E4C600A7D027CEFDCFEC7
:04046C00DDFC80EC47
:010470002269
:06049700C2A58F80D2A770
:08049D007F027EEFDEFEDFFCB2
:0104A5002234
:0A04B200C2A6120497C2A702049D1F
:10040B00CFCDCFCECCCE1202B57C007D0A1202B579
:04041B00ED2430FF9D
:0A041F00D2A6120497C2A702049DA2
:10044600AE07BE0104ED148006BE0209ED243F444A
:0604560080FF1204B22237
:100471007F381204B27F0C1204B27F061204B27FDD
:04048100010204B2BE
:0A04BC00AC03120446AF0402041F53
:0603E8008B088A09890A56
:1003EE00120446E4FDAB08AA09A90A8D82758300A2
:0C03FE00120276FF600612041F0D80E959
:01040A0022CF
:0C03B5007F0AEA24FFFDE434FFFC7E0018
:0803C1008E0D8F0E8C0F8D10C4
:1003C9007F017E00E4FBEBC39510E50F6480F874B0
:0E03D9008098500AAC0DAD0E1202A30B80E806
:0103E70022F3
:040429008A0A8B0BA5
:10042D00120446AA0CEAD39400400D1203B5AC0A8F
:08043D00AD0B12040B1A80ED57
:010445002294
:10030A00120446C3EA64809480400B7F2B12041FB8
:10031A008A168B17800E7F2D12041FC3E49BF517D4
:10032A00E49AF516AA15EAD39400400D1203B5AC67
:09033A0016AD1712040B1A80ED38
:010343002297
:040344008A1F8B2061
:10034800120446AA21EAD3940040297F101203B769
:10035800AC1FAD20CFCDCFCECCCE1202B5EF540F0F
:10036800FEC3940AEE5004243080022437FF12049E
:040378001F1A80D1F7
:01037C00225E
:04037D008A248B251E
:10038100120446AA26EAD394004028EA24FFFDE499
:1003910034FFFC7F027E001203C1AC24AD25CFCD1A
:1003A100CFCECCCE1202B5EF54012430FF12041F80
:0303B1001A80D2DD
:0103B4002226
:10000300E4F5087590FFC2932097137F14FE120442
:100013005C3097FD7F147E0012045C750801209606
:10002300147F147E0012045C3096FD7F147E001250
:10003300045C7508052095147F147E0012045C305F
:1000430095FD7F147E0012045C7508092094147FCB
:10005300147E0012045C3094FD7F147E0012045C55
:1000630075080D7590FFC2922097147F147E0012BD
:10007300045C3097FD7F147E0012045C7508022037
:1000830096147F147E0012045C3096FD7F147E006C
:1000930012045C7508062095147F147E0012045C1C
:1000A3003095FD7F147E0012045C75080A209414B9
:1000B3007F147E0012045C3094FD7F147E001204D2
:1000C3005C75080E7590FFC2912097147F147E0013
:1000D30012045C3097FD7F147E0012045C750803E4
:1000E3002096147F147E0012045C3096FD7F147EEC
:1000F3000012045C7508072095147F147E00120417
:100103005C3095FD7F147E0012045C75080B20940F
:10011300147F147E0012045C3094FD7F147E001261
:10012300045C75080F7590FFC2902097147F147EAE
:100133000012045C3097FD7F147E0012045C750886
:10014300042096147F147E0012045C3096FD7F1405
:100153007E0012045C7508082095147F147E00123B
:10016300045C3095FD7F147E0012045C75080C203E
:1001730094147F147E0012045C3094FD7F147E007F
:0801830012045C750810AF08BE
:01018B002251
:030000000204A651
:0C04A600787FE4F6D8FD75812602018CF9
:10027600BB010CE58229F582E5833AF583E022503D
:1002860006E92582F8E622BBFE06E92582F8E22287
:0D029600E58229F582E5833AF583E49322A1
:1002A300EF8DF0A4A8F0CF8CF0A428CE8DF0A42E6F
:0202B300FE2229
:1002B500BC000BBE0029EF8DF084FFADF022E4CC2D
:1002C500F875F008EF2FFFEE33FEEC33FCEE9DECF6
:1002D500984005FCEE9DFE0FD5F0E9E4CEFD22ED3C
:1002E500F8F5F0EE8420D21CFEADF075F008EF2F86
:1002F500FFED33FD4007985006D5F0F222C398FD77
:050305000FD5F0EA2213
:00000001FF
